:020000040000FA
:10100000407D0020F551010057160200E15101001A
:10101000E1510100E1510100E15101000000000037
:10102000000000000000000000000000A9530100C3
:10103000E15101000000000075530100E151010081
:1010400061550100652002006155010061550100F4
:1010500061550100615501006155010061550100B4
:101060001B20020061550100615501004F20020064
:101070006155010061550100615501006155010094
:101080006155010061550100615501006155010084
:101090006155010061550100615501006155010074
:1010A0006155010061550100615501006155010064
:1010B0006155010061550100615501006155010054
:1010C0006155010061550100615501006155010044
:1010D0006155010061550100615501006155010034
:1010E0006155010061550100615501006155010024
:1010F0006155010061550100615501006155010014
:1011000053B94AB9002908BF00281CBF4FF0FF316E
:101110004FF0FF3000F00CB8ADF1080C6DE904CED3
:101120000EF0E8F8DDF804E0DDE9022304B07047D2
:10113000704700BF1FB50023019303930B4B02932D
:101140000B4B1B7883B10378002B0CBF01230223C8
:101150008DF80B3001A9FF2301208DF80C3000F031
:10116000EDFC05B05DF804FB0123F1E73801080050
:10117000800800201FB50A4B0193A823ADF8083062
:1011800008238DF80A3003798DF80B3001A901236B
:1011900005208DF80C3000F0D1FC05B05DF804FBA3
:1011A000E1890000F7B504460D4641B9124B5B7862
:1011B000012B04D0019101A80121FFF7F3FF23685F
:1011C0000E4E0F4F0733002D23F0070323600CBF93
:1011D0002046002000F08AFC002556F8043B0BB1A5
:1011E0003846984701350F2DF7D100F0F7FC2368FA
:1011F0000344236003B0F0BD8008002054000020A9
:10120000820800202DE9F04385B0974C03900646F4
:1012100003A80D46FFF7C6FFA778E3784FF0000953
:101220001F44FFB2C8465FFA89F39F4200F209816A
:101230000398033020F00300002D0390414618BFAF
:10124000002000F01FFE039B21791844039081B118
:101250006379627C033020F00300002D1A44039070
:10126000A389D2B218BF002000F024FE039B0344E0
:1012700003937E4F7B68CBB1E17AB9B194F8283003
:101280000398002B00F1070014BF4023252320F012
:10129000070014BF4FF481722822002D039018BF5D
:1012A000002003F0D7FD039B03440393A17B91B17E
:1012B00023791BB97B6873B1E37A63B10398073074
:1012C00020F00700002D039018BF002007F00EF952
:1012D000039B03440393664B1B6873B1A17961B10F
:1012E0000398E27B033020F00300002D039018BF29
:1012F00000209847039B034403935E4B1B686BB12C
:10130000217C59B10398033020F00300002D039095
:1013100018BF00209847039B03440393564BD3F810
:101320000080B8F1000F11D0617C79B10398237D62
:101330000093033020F00300002DE37C0390A27C97
:1013400018BF0020C047039B03440393FB697BB194
:10135000A17969B10398A27D033020F00300002D2C
:10136000039018BF002000F0FFFE039B034403938B
:1013700094F8210080B1039AE37E217E0332194460
:1013800022F0070242F004022B46C9B2039200F099
:101390002BFF039B0344039394F8221000295AD097
:1013A000039FA28C0737002D27F007070CBF384694
:1013B000002003970EF0F4FE039B034403931DB932
:1013C000A18C384609F014FF217F002945D094F8FC
:1013D0002030002B41D00398E28B073020F007002B
:1013E000002D02F12402039092B218BF00200EF0EB
:1013F000D7FE039FA37E217E3A180332194422F0C0
:10140000070242F004022B4694F820000392C9B26E
:1014100000F0DCFE039B0344039335B9E28B217F8C
:10142000083292B2384609F0FDFEE36A23B1039B0D
:1014300005B9E362283303930398801B05B0BDE828
:10144000F083A37A627A217AE0790EF07BFE09F1CB
:1014500001098044E7E60F46B1E7002DE5D12A46B1
:1014600029462846DFE700BF8008002054000020FE
:101470009000002098000020940000208FB572B6E4
:10148000194B1D6BE5B9BFF34F8F1849184BCA684C
:1014900002F4E0621343CB60BFF34F8F00BFFDE760
:1014A000B4FBF6F4DAB20133002CF9D102F11003E7
:1014B0006B440A2603F80C4C32B901A8A847E2E7AE
:1014C000044600230A26EDE7531E04AC54FA83F4C5
:1014D000DAB2C3B2B3FBF6F706FB1733303304F8C6
:1014E0000C3CB0FBF6F0E7E78008002000ED00E0E0
:1014F0000400FA051FB5164CA37A8DF80930637AFB
:101500008DF80830237AADF80C3002A8E379ADF8F5
:101510000A3006F053FA18B1DB210320FFF7AEFFC3
:10152000012301A88DF804300FF0F6F908B1DF218E
:10153000F3E7207D06F092FA08B1E221EDE7E07CC6
:1015400006F086FA08B1E321E7E704B010BD00BF5A
:101550008008002038B50546002840D00DF04CFA30
:1015600010B94FF0FF3038BD0AF0B2F8B0F5FA7F8D
:10157000F7D81D4C1D482563002500F059FA29466F
:101580003C221B4865700DF08DFD26222946A01CCB
:10159000257084F82850E5620DF084FD1B22E2716D
:1015A00040F21B32228140F2023240F2011362818A
:1015B0001F226380A28101234FF402722371E28112
:1015C000A37544F60112FB236282A384EFF3108417
:1015D00072B600F019FE2CB962B62046C3E76FF070
:1015E0001500C0E72846BEE780080020F51400007B
:1015F0005400002010B5002840F0A380544C6378BC
:10160000022B00F09B80A1B1002A6CD00139142973
:1016100000F29780DFE801F00B181B2B535B74314D
:101620005E616F373D4A4F797C898C8F81001378DA
:10163000A37001210020FFF7E5FDB0F5803F80F2A7
:1016400083800123637010BD1378E370F1E7937812
:10165000002B48D0D378002B45D013781A2B42D9D1
:1016600053781A2B3FD91368C4F80730E1E7137891
:101670006279934237D32371DBE71378227993425F
:1016800031D86371D5E71378227993422BD86374EC
:10169000CFE713783BB35378013BDBB2F82B22D86A
:1016A000138863822B4B92789A70C2E7107860752A
:1016B00007F08CF8BDE71378ABB1A375B9E71378E1
:1016C000254A52680AB1012B0DD9E372B1E713889C
:1016D000A381AEE71378A371ABE71F491378C969FB
:1016E00021B9012B04D86FF01500ACE7002BFAD01C
:1016F0001378E3739DE71378082BF4D8237498E7E5
:101700001388FF2BEFD8A37393E71378E37590E763
:1017100013780E2BE7D823768BE713680F49E36124
:1017200053684B6013890B8183E71378637680E7F6
:101730001378E3767DE71378A3767AE74FF0FF30EE
:1017400081E76FF02C007EE76FF00B007BE700BFB6
:101750008008002092080020540000209C080020EF
:1017600070B50D460646E8B1E1B111F0070419D194
:1017700000F09AF8C8B130460DF0B2FA0C4E21468E
:1017800086F834002846FFF73DFD10F0CDF996F8B5
:101790003400F16A06F0A4F9FFF7ACFE022373707F
:1017A000204670BD6FF01500FBE74FF0FF30F8E703
:1017B0008008002010B5074C6378022B05D106F095
:1017C000ABF994F834000DF0A7FA0EF07FFD00207D
:1017D000607010BD8008002050B1074B03F1140267
:1017E00053F8041B40F8041B9342F9D100207047C2
:1017F0006FF01500704700BFDD59020038B5084D85
:101800006C784CB906F040F9064B074A5A60012340
:1018100085F82830204638BD4FF0FF30FBE700BF89
:1018200080080020540000203511000010B5054B41
:101830005C781CB90FF0A1F8204610BD4FF0FF30C6
:10184000FBE700BF8008002010B5094B5C7864B945
:1018500006F02EF9074B084A5A61084B084A1A60ED
:10186000084B094A1A60204610BD4FF0FF30FBE7D5
:101870008008002054000020751100009000002016
:10188000A191000098000020D9200000024B0268BE
:101890001A600020704700BFB8080020014B1B6889
:1018A000184700BFB8080020024B1868003818BF5E
:1018B00001207047B808002073B52E4D031D044663
:1018C0002B60284606F0CAFC0228064606D12949A4
:1018D00020460DF06DFE304602B070BD042842D1A6
:1018E0002B78092B0AD0252B1ED0294620460DF037
:1018F000C4FEB0F5817F2DD3722112E005213E2078
:101900000DF048FE0028F0D1EB782A7901A943EACE
:1019100002236846ADF800300EF07AFA0028D0D0E5
:1019200053210820FFF7AAFD1A213E200DF032FEB8
:101930000028DAD16B68C3F30F23ADF80430694691
:10194000112301A88DF806300EF080FA0028B8D0D7
:101950006521E6E70028B4D0A17820780DF01AFEC2
:101960000028B8D1ADE70828B5D1024920460DF0CE
:101970004EFEB0E7BC080020074B4FF0FF3141F6A8
:10198000FF72C3E9001205490022C1E900221F21AC
:10199000C3E90212704700BF00000020C009002008
:1019A0003F280CD801380B4BC0F3421200F01F0047
:1019B00053F8223023FA00F000F001007047FF28AE
:1019C00006D04038C0F34212034B00F01F00EFE78F
:1019D0000120704700000020C00900200146074B8D
:1019E000006849681A4603C240F48C221A6041F02C
:1019F000107242F4FF625A60704700BF000000207E
:101A00000246024B0068516803C37047080000207B
:101A10000138064BC0F3421203EB820300F01F00B3
:101A20009B6823FA00F000F00100704700000020DE
:101A3000014B1860704700BFC809002010B5FFF7C0
:101A40009BFF0EF031FD034B1B68044603B1984722
:101A5000204610BDC80900200B880288F0B5C3F3EA
:101A60000E049EB204F11803C57CC35A05352A44FE
:101A70002B4497B213FA82F3013B4288B3FBF7F38E
:101A800013FB07439BB29A42044A93BF22EA060320
:101A9000324013439BB20B80F0BD00BF0080FFFFBC
:101AA00010B5114B00EB41041A786389B3FBF2F3D4
:101AB00003FB0223013A1A44B2F5706F027928BF82
:101AC00000231A448378B2FBF3F0194403FB10207F
:101AD000091AB1FBF3F003FB101313446FEA4343FD
:101AE0006FEA5343638110BDCC09002010B5124B3F
:101AF000E0B15A78022A04D040F22B111720FFF7E8
:101B0000BDFC03225A70026812F0070102D04FF4A4
:101B10009871F3E75C685A60224402609A60BDE8FD
:101B200010403C2203F10C000DF0BCBA01225A70A7
:101B3000C3E9010010BD00BFCC0900202DE9F04130
:101B4000254E96F801E00EF0FD0CBCF1010F04D01B
:101B500040F245111720FFF791FC91F80680B8F18B
:101B6000080F02D940F24711F4E7CF7997B3454601
:101B7000022D726838BF02257B1D5C0002EB430317
:101B80006A1E13446D422B408D884544013DC8F1C7
:101B900000022A404FF6FE75AA4202D94FF4A971FD
:101BA000D8E7BEF1030F12D106EB80001C1BC568FD
:101BB00015B140F25711CDE7C460A770228084F8B8
:101BC00003C0087A09682071080CE080218107FBB6
:101BD00002337360BDE8F081CC0900202DE9F047A5
:101BE000364C6378012B65D0032B04D040F267118B
:101BF0001720FFF743FCD4E901329A4202D04FF498
:101C0000B571F5E72546002305F80C3B1E460E226C
:101C1000994655F82200013A58B190F8048081782D
:101C2000B8F1FF0F2FD180F804908E423CBFCEB2A6
:101C30000123511CEDD103B126700E2640F6FF6939
:101C400055F826709FBB013EFAD204236370002032
:101C5000BDE8F08755F82CE0BEF1000F06D09EF8E5
:101C600004A0C24504BF9EF802E077440CF1FF3C9B
:101C7000BCF1000FEEDA3944FF2907D903B1267011
:101C80004FF48371B4E794460027F1E70771CCE77E
:101C900007EB41033846A3F80A90FFF701FF08F16C
:101CA0000108BB785FFA88F18B42F1D8CBE74FF09F
:101CB0000008F6E7022360686370C9E7CC090020DA
:101CC000F8B54FF6FF730380184B03EB810305460D
:101CD000D868B8B186780379B3FBF6F206FB123305
:101CE000DBB219460A1D00EB4202B2F902705488B9
:101CF000002F09DB0131B1FBF6F206FB1211C9B26C
:101D00008B42EFD10020F8BDFF29FBD0C4F30E03B6
:101D1000C4782B8024B94FF4D9711720FFF7AEFB9C
:101D20005380BDE8F8400EF0ECB900BFCC090020AC
:101D30001D4B03EB810370B5DC68054644B3030417
:101D400004D54FF4E0711720FFF798FB01462046B9
:101D50000EF0B9F9FF28014604D02046BDE87040D6
:101D60000EF0CFB9A078B5FBF0F300FB1353DBB254
:101D700019460A1D04EB4206B6F90260002E09DB83
:101D80000131B1FBF0F200FB1211C9B28B42F0D16C
:101D9000002070BDFF29FBD08B4204EB42021CBF28
:101DA0000023E3705580D8E7CC090020094B03EBF2
:101DB000810310B5DC68014620460EF084F9FF2847
:101DC000014604D02046BDE810400EF09AB900202C
:101DD00010BD00BFCC090020F8B5104B03EB810308
:101DE0000746DC68014620460EF06DF9FF280546DF
:101DF00011D0E688238953EA064606D001462046DC
:101E00000EF07FF901463846B04720462946FFF7D5
:101E100047FE0020F8BD0320FCE700BFCC090020EE
:101E200038B50E4B827903EB82030446D86808B9B3
:101E3000022038BD8278E1799142F9D24B1CE371DE
:101E400000EB41035D89B3F90A30002BF3DBA58079
:101E50000EF057F920600020EBE700BFCC0900200E
:101E600008B5074B03EB81030146D8680EF02BF948
:101E7000FF2804D140F226211720FFF7FFFA08BD02
:101E8000CC09002070B5044610F003000E4603D0C4
:101E900049211820FFF7F2FA0EF0F7F8054624B1B1
:101EA0000348314604600EF0F0F8284670BD00BFCC
:101EB000140A0020F8B511441D4EC9B210F00305F4
:101EC000317003D04D210920FFF7D8FA1F2B19D804
:101ED0009B009BB2033323F003039BB208B17060F5
:101EE000338101EB81047668E2004FF0010C00EBD6
:101EF000C404EFB2B94212D8D01D03FB010020F098
:101F00000700F8BDFF2B4FEA430204D9FF33934289
:101F1000DFDB93B2DEE77C2AFBDC7C23DAE710B15F
:101F200086F800C07460013528361C44E1E700BF24
:101F3000180A002038B5144A147853680021C8B232
:101F4000844203D8A8210920FFF798FA18460131E6
:101F500005782833002DF2D00021817001241289E8
:101F6000447044688161C161920800F12001051D3F
:101F700021F8022B994245F8044B1444F8D1002370
:101F80004361037038BD00BF180A00202DE9F843F3
:101F90004B7880460C4602F0040602F0FB07D3B1F2
:101FA000DFB12E4BD4F804901D89B7BB01236370B9
:101FB000AD08A761E76104F120034A46211D04F141
:101FC000280023F8025B984241F8042B2A44F8D1F8
:101FD0000023636101E0002FE3D0FF23A370002EF4
:101FE00018BF0226A3191B7D032B03D1022F1CBF90
:101FF0000136F6B2A31901221A7506F10C0204EBA0
:102000008606002324F812307268A370C8F80020F6
:10201000A8F804304046BDE8F8830021142261701E
:10202000A0180DF03FF8B5F5FF7F0FD26B08ED1A41
:10203000ADB209EB0502C4F804902584A260638464
:10204000C4F80C90A5842261E384C6E7B5F5EE6F71
:102050004FF0FF03EBD940F27265EAE7180A00205F
:10206000F7B50B68CDF80130D2008B88ADF805309C
:102070004000104B02F0780200F00600024342F0EC
:1020800001021E785F688DF800200025EBB29E42A9
:1020900001D800240AE0C5EBC5043C440722694688
:1020A00020460CF021FF01350028EFD1204603B077
:1020B000F0BD00BF240A0020014B1878704700BF14
:1020C000240A0020034B1A785868C2EBC202002190
:1020D0000CF0E8BF240A002010B50C4650B183076D
:1020E00003D020214120FFF7C9F9044B5860197033
:1020F000FFF7E8FFC4EBC40010BD00BF240A0020B6
:10210000F8B504460D461646FFF7AAFF034638BB4E
:10211000144A92F800C05768DAB2944501D80720F3
:102120001DE0C3EBC302B918B85C024610F0010011
:1021300003F10103F0D1630003F00603F60043F05E
:10214000010306F0780622F07F02334313430A4668
:1021500002F8013B2B68C1F80130AB889380F8BDD1
:102160001220FCE7240A00202DE9F74305460C461F
:10217000F720052190460DF0A6FE064685B115F024
:10218000030703D08F211920FFF778F9DFF8389083
:10219000C9F81050A9F81400A5B2BBB29D4204D8EA
:1021A00006FB04F003B0BDE8F083B9F814C0D9F819
:1021B0001000CDF8008007FB0C000523F722314604
:1021C0000DF046FE0137E8E72C0A002007B5CDE9FF
:1021D00000230B4603490246081D0EF051F803B0D8
:1021E0005DF804FB440A002013B5064CCDE900233A
:1021F0000B46024604F1080104F10C000EF040F811
:1022000002B010BD440A0020134B012200214FF000
:10221000FF309A60C3F80012C3F80803C3F8001532
:10222000C3F804259A60C3F80803C3F80015C3F87F
:1022300004250A490A4A03F580334FF40040C3F8E5
:102240000825C1F88000BFF34F8FBFF36F8FC1F82F
:102250008001C3F80825704700F0004000E100E06D
:102260000000F63F014B1876704700BF580A002067
:10227000014B1872704700BF240B002090F830010A
:10228000704700BF18230B70704700BF08B54FF4AC
:102290002B713220FFF7F2F8044B1B680022A3F8E1
:1022A000B22083F8B42083F870207047380B0020E8
:1022B00008B505F027FF034B187007F0FBFD03205E
:1022C00008BD00BF1000002008B505F01BFF024B41
:1022D00002461A70012008BD100000202DE9F041CF
:1022E000054617461E46A1B1AB681BB12FB1384653
:1022F000BDE8F0810120BDE8F081002EF7D018493B
:10230000AA7C0968BDE8F04191F8410042310EF025
:10231000EEBBDFF84C80D8F8001091F8562091F809
:102320009A0001F1570393310EF0E1FBD8F8003029
:1023300093F88120082A03D093F88410914207D0A3
:1023400093F85230012BCFD033B90028CCD1D2E74B
:1023500093F85230012BC7D90020BDE8F08100BFAF
:10236000380B002038B50D4D2C6894F8853063B9D2
:102370000023012184F87010A4F8B23084F8B4303E
:102380002046BDE8384004F05FBD08F01BFA07F0B6
:10239000A1F8002384F885302C68E9E7380B002089
:1023A00010B50D4C236893F85030032B0BD16068A7
:1023B00060B108F06DF9002008F0D4F92368042218
:1023C00083F8702010BD02F071FDF1E740F2F24198
:1023D0003220FFF753F800BF380B002038B5204DEE
:1023E0002B6893F87020022A35D8027C83F880206D
:1023F000C16859671A44044692F8B52083F8B120A1
:102400004268DA67037A022B02D1637CCBB938BD0C
:1024100007F048FB08F0D6F907F05CF8114808F01F
:1024200021F9114808F018F9104807F065FC2B68ED
:1024300093F868305BB901200CF0EAFE637C002B56
:10244000E5D02868BDE8384060300EF048BB022077
:102450000CF0DEFED9E740F6D5013220FFF70EF88A
:10246000380B00204401002055555500D6BE898EFA
:1024700070B5414C236893F87020032A064626D095
:1024800093F87020042A22D093F85020032A4ED1CA
:102490006568002D51D06EBB93F87020022A56D982
:1024A00093F87020082A57D893F87030A26803F187
:1024B00080435269033B52F8233098470C2841D897
:1024C000A368DB68BDE8704053F82030184793F8E4
:1024D0005020032ADCD002F0E9FC05466DB32368E6
:1024E00093F85020013A022AD5D941F246313220E0
:1024F000FEF7C4FF28460EF061FD18B928460EF01D
:1025000078FDC0B1236893F87020022A29D993F886
:102510007020082A2AD893F87030A26803F180430B
:102520001269033B284652F823309847C6E702F069
:10253000EFFC0546D2E72368AEE74FF49A5132200C
:10254000FEF79CFF41F25B313220FEF797FF41F22C
:1025500026313220FEF792FF41F227313220FEF77A
:102560008DFF41F2C6213220FEF788FF41F2C721DC
:102570003220FEF783FF00BF380B002038B5144C23
:10258000236893F85030032B18D16568D5B12368C0
:10259000FF2093F8B11007F04FFA284608F078F8BA
:1025A000236893F8B10010F00C0018BF282008F041
:1025B000D9F82368072283F8702038BD02F0A8FC00
:1025C0000546E3E740F217513220FEF757FF00BF00
:1025D000380B002008B505F095FD034B187002F08C
:1025E00075FF012008BD00BF10000020034A1068DD
:1025F000022380F8703004F0B9BA00BF380B002015
:1026000008B540F243313220FEF738FF30B5047888
:102610008DB004F00F0402A9224603F05FF907F021
:1026200049FC05F06FFD214B042C187002D00320EB
:102630000DB030BD1E49039A09681478054691F81B
:1026400093008442F3D1547891F894008442EED1FF
:10265000947891F895008442E9D1D47891F8960065
:102660008442E4D1147991F897008442DFD1507903
:1026700091F898209042DAD19DF8190091F89A20AB
:102680009042D4D17F2D0ED07F221A7002A891F8EB
:10269000993091F8A82091F88210009503F02CF859
:1026A00003200DB030BDFFF7ABFF00BF10000020CE
:1026B000380B00202DE9F047044684B006290CD8D9
:1026C000DFE801F06822110B0B0B0400B74D2A68FC
:1026D00092F88B30002B40F0838007F0EBFB032057
:1026E00004B0BDE8F08707F0E5FBB04B1A6892F83C
:1026F0008B302BB192F85030013B012B40F2DE8041
:10270000032004B0BDE8F087A84F837C396891F8B6
:10271000865091F88BA0012B85F001057ED0002614
:1027200091F85030032B00F0BF8091F88180B8F110
:10273000080F40F0A88091F841804FF00009404612
:10274000032B75D1636891F857201E78964200F0EC
:102750005081002691F88130082B04D091F8842014
:102760009A4208BF0126B9F1000F40F0A580002D64
:1027700040F0E080BAF1000FAFD03B6893F85230E0
:10278000012B03D0002BA8D1002EA6D0002DA4D061
:102790000A20A5E7854D2A6892F88B30002B9CD043
:1027A00092F85030022B00F0CC80012B00F05881C1
:1027B000032B40F06C81436892F8571018788842D8
:1027C00000F0938092F85230012BE1D092F88430DF
:1027D000082B82D092F881209A427FF47EAFD7E70F
:1027E00092F85030022B00F0C680012B7FF475AFB9
:1027F0006F4991F900307F2B00F04781029392F8E6
:102800009930019392F8823000937F250D70FF2359
:102810004232062102F0A6FE032061E783685E795A
:1028200006F0C006A6F14006B6FA86F6760977E706
:1028300007F040FBBAF1000F3FF462AF3968A368BC
:1028400091F84100A27C42310EF051F918B9B9F16A
:10285000000F00F0AF80564D95F900307F2B00F04F
:1028600014813A68029392F89910019192F88210BB
:10287000009120467F244346423201212C7002F011
:1028800071FE03202CE7404605F008FB002818BF26
:102890000546002E40F0D280396891F8418091F8C9
:1028A0005030B14640464BE791F84920002A3FF4AA
:1028B0003CAF91F884803AE701255BE73C4991F908
:1028C00000307F2B00F0E180029392F89930019361
:1028D00092F8823000937F2520460D70FF2342320C
:1028E000022102F03FFE0320FAE6587892F85810D1
:1028F00088427FF467AF987892F8591088427FF445
:1029000061AFD87892F85A1088427FF45BAF18799B
:1029100092F85B1088427FF455AF597992F85C3099
:1029200099427FF44FAF617C92F8563099427FF420
:1029300049AF2DE7A368A27C42310EF0D8F80546D6
:1029400018E71B4991F900307F2B00F09E8002931D
:1029500092F89930019392F8823000937F24FF23FC
:1029600042320C70002102F0FDFD2B68012283F839
:10297000A8200920B4E60E4991F900307F2B00F021
:102980008480029392F89930019392F882300093F8
:102990007F24FF2342320C70062102F0E3FD2B68F6
:1029A000002283F8A82009209AE600BF380B0020F7
:1029B000100000203A6892F85130023B012B3FF69C
:1029C0009FAE002E3FF49CAE334991F900307F2B2F
:1029D0005BD0029392F89930019392F88230009381
:1029E0007F250D70FE2342322046012102F0BAFD00
:1029F00086E65E7891F8582096427FF4AAAE9E78DB
:102A000091F8592096427FF4A4AEDE7891F85A20CE
:102A100096427FF49EAE1E7991F85B2096427FF439
:102A200098AE5A7991F85C309A427FF492AE667C07
:102A300091F85630F31A5E425E418BE6A16840463B
:102A400005F002FB3968814691F8410091F8503059
:102A50008046B9F1000F3FF473AE40F002086FE614
:102A60000D4991F900307F2B0FD0029392F89930E5
:102A7000019392F8823000937F250D70FF2342323C
:102A8000002102F06FFD03202AE6FFF7B9FD40F6B2
:102A9000F5413220FEF7F2FC1000002030B5164B55
:102AA00093F900407F2C85B024D07F221A70134BFD
:102AB0001A6892F87030032B15D092F87030062BFC
:102AC0000CBF0325012592F8B130CDE9024592F8FB
:102AD0008240019492F899400094423202F03CFA0C
:102AE00018B905B030BD0025EDE705B0BDE83040B0
:102AF00002F0BABCFFF784FD10000020380B002064
:102B000010B5104A136893F8701002290FD993F882
:102B10007010082910D893F87030926803F1804340
:102B20009268033BBDE8104052F82330184741F249
:102B30003D413220FEF7A2FC41F23E413220FEF739
:102B40009DFC00BF380B0020F8B5334C236893F888
:102B5000B42005465F2A93F8B2009CBF51092F4A62
:102B6000C0F3050700F03F0094BF565C002607F055
:102B7000CDF8236893F9540083F8997007F0B6F8FC
:102B8000FDB123683246596F012007F0EFFB0028A2
:102B90003CD0236893F89230022B0CBF4020FF20DA
:102BA000314606F049FF256895F85030032B10D1C7
:102BB00095F8A8306768A3B1384607F069FD012091
:102BC000F8BD32467321012007F0D0FB0028E0D188
:102BD000F6E702F09DF9256895F8A8300746002B26
:102BE000EAD1781D05F0EAF9236885F8850093F8A5
:102BF0008530002BE0D016F00C0F14BF5524502464
:102C000006F04AFC204607F0D1FDD5E740F2EB7113
:102C10003220FEF733FC00BF380B0020F0320200F8
:102C2000F8B53A4E336893F8B4205F2A9EBF510935
:102C3000374A575C5A6F054688BF00272AB10120E2
:102C4000FFF782FF00285BD03368D86F07F058FD8C
:102C5000346894F85030022B31D0032B0AD0E5B100
:102C600040F20113A4F8A930002384F8B17084F86D
:102C70008930F8BD94F89230012BF0D117F00C0F89
:102C80002CD094F85530012B14BF39460421002074
:102C900007F0B2FD3468002DE2D194F89230022B97
:102CA00014D0012B1CD0002BDED102F0BFFD84F824
:102CB000A90002F0B9F884F8AA003468D4E794F8BF
:102CC0009230022BDAD0002DCAD1EAE7002384F833
:102CD000B170A4F8A95084F88930F8BD3946D6E718
:102CE00094F8B130A3F10203B3FA83F35B094FF018
:102CF000000263F3070263F30F22A4F8A920B3E7ED
:102D000040F2B4413220FEF7B9FB00BF380B00207F
:102D1000F032020038B505460C4604F047FF420782
:102D200004D4A37803F0E003402B0DD004F03EFF61
:102D3000830704D4A37803F0E003202B04D0237886
:102D400003F03F03242B01D9002038BD06F03EFEDE
:102D500094F9003094F802C06278002B0CF01F0345
:102D6000ACBF1E214FF4967142EA032301FB03F32B
:102D70001A1AB2F5877FE7D39842E5D8054A238827
:102D80001068A0F8B23080F8B4C02946BDE83840D9
:102D900003F080BE380B0020F0B5294E326892F85F
:102DA0008B3087B05BB392F8A830044633B9037810
:102DB000002B0CBF0123022382F8A83092F8703058
:102DC000062BD8B230D0072814BF012702271D4890
:102DD00090F900507F2D31D092F8B130CDE90257F3
:102DE00092F88250019592F8995000957F250570D0
:102DF0004232204602F0B0F820B9022F16D100204E
:102E000007B0F0BD607810F0100512D0A169022063
:102E1000FFF780FF059048B13368002283F89220C5
:102E200007F048F80598EBE70327D0E702F04EFBE0
:102E3000E5E702F019FB284607B0F0BDFFF7E0FB1D
:102E4000380B00201000002010B504468AB005F0B1
:102E500059F92378174A03F00F03072B107002D09B
:102E600001200AB010BD6946204602F0D1FD9DF850
:102E7000003000220292002BF2D19DF80130DB07D6
:102E8000EED50D4C019923689DF8110093F89A2016
:102E900093330DF02CFE0028E2D0206801218E3003
:102EA0000DF0E3FDFF216846FFF776FF0028D7D03D
:102EB0000220D6E710000020380B0020F0B54C4E61
:102EC00085B0336893F8AB30C3B143781B07044631
:102ED00014D5037893B93368D3F8AC0050300D465D
:102EE0000EF0D6FA50B93268D2F8AC707B7D4BB98F
:102EF00061694878B97AB1EB101F03D000231846F6
:102F000005B0F0BD616800294DD092F88100082815
:102F10001CD1002B52D06369607C5A7812090DF0E5
:102F2000A8F903460028E9D0626930685178D0F8E2
:102F3000AC20C1F30311917261680D68D560898876
:102F40001182D0F8AC20617CD172D8E702AA0DF1D1
:102F5000070104F0EDFF002845D03368D3F8AC102A
:102F60004B7D002B34D063699DF807005A7802A985
:102F700012090DF07EF90346002BC0D06269346857
:102F80005178D4F8AC20BDF80C500298D060C1F351
:102F90000311917215829DF80720D4F8AC1042F00D
:102FA0000202CA72ABE7E5B1012DA7D102F03EFCE7
:102FB0000028A3D0336893F88C30A0E7627CF87ABD
:102FC0000B4607F10C0105B0BDE8F0400DF08FBDD8
:102FD000C87A9DF8072002AB0C310DF088FD03463E
:102FE000CAE701238BE740F672713220FEF746FAFA
:102FF000380B002043785A0600F182802DE9F04317
:10300000027803F01F0352EA032387B0044674D00A
:1030100008466188052970D9227A6368C2F30402E0
:1030200053EA020569D0394D2D68002D69D000287A
:1030300067D0A847002860D0354E227A3168D1F891
:10304000AC5001232B766368C2F304028DF8142080
:103050001A0A05F11E0004A98DF810308DF8112010
:103060001A0C1B0E8DF812208DF813300DF008FE8F
:103070006288316840F2E24303FB02F2637BAA6795
:10308000D4F809202A60A27B43EA0223E27B43EAC8
:1030900002436B60228A237A013AC3F34213A5F8F4
:1030A000622085F8923091F8B130AB75637825785D
:1030B00091F8B0009A0603F01F0354BF1E224FF48C
:1030C000967245EA032302FB03F591460AF0D6F90E
:1030D0000746884606F098FC248A3368C21904F132
:1030E0000604D3F8AC00CDF80490A4B20294009585
:1030F00048F10003503005F0ABFA07B0BDE8F083AB
:103100007047034E3168D1F8AC509FE7240100208E
:10311000380B00202DE9F047072984B00E460446FD
:1031200017464DD14068002800F08F80637C012B4A
:1031300000F0BA80DFF80C82D8F8003093F88100F4
:10314000082860D002AA0DF1070104F0F1FE002862
:1031500000F0F0809DF8070002A90DF09FFF0546E2
:10316000D8F80090062E99F849A000F28F80BAF1A5
:10317000000F18BF55464B4683F88B50724B1B68A7
:1031800033B139462046984789F88C00D8F800902A
:10319000636843B1627C89F89A201A68C9F8932061
:1031A0009B88A9F8973099F88C300120002B00F00B
:1031B000C680A3680BB1072E38D004B0BDE8F087F5
:1031C0004568002D00F09080437C012BB2D16B79D3
:1031D00003F0C003402BADD1DFF86881D8F8005070
:1031E00095F88530002B7CD00DF0ACFCD8F8003081
:1031F00085F8810093F8810083F882000122082875
:1032000083F889209ED16168607C0DF047FFD8F873
:103210000020616805468132607C04F067FE00286A
:103220009ED1D8F80090A9F88B00C2E799F88110D8
:103230000829C2D00028C0D0184604F0AFFED8F844
:103240000030012283F88A20B7E7002A52D0DFF845
:10325000F480D8F8009099F849A0054699F88B3089
:10326000002B5ED06368002B81D102F0DFFA20B121
:10327000D8F8002092F88B502DB9BAF1000F53D036
:10328000D8F8002055464B46914675E7082E2ED8B3
:10329000002FE3D16368002B7FF469AF6378DB060E
:1032A000E3D54B46012567E7437903F0C003402B84
:1032B0007FF440AFDFF88C80D8F8005095F8853067
:1032C0007BB1002F90D195F8B11001298CD104F079
:1032D00047FE85F88500D8F8005095F88530002B1A
:1032E00082D195F881002BE7DFF8588038E74B460C
:1032F000002541E7134C2368012583F88B5093F890
:10330000AB30002B3FF459AF2368D3F8AC005030FA
:103310000EF0BEF800287FF450AF236883F88C507D
:103320004BE71D464B4627E704F0DAFDD8F80020AE
:103330000546A8E740F651313220FEF79FF899F88C
:103340008B0036E7380B00209C0000202DE9F04F61
:10335000DFF8FCB0847CDBF8007097F88660012C05
:1033600083B0054689469246984686F0010637D0D6
:10337000002497F88530224603B397F85030032B8A
:1033800035D06B681BB397F88170082F25D038466D
:10339000019204F083FD019A002818BF0646EAB1A5
:1033A000DBF8003093F88A30002B46D00DF0D4FBC8
:1033B000DBF800200021034682F88A108AF80030EA
:1033C00089F8004088F8006003B0BDE8F08F0192F2
:1033D00002F02CFA019A002835D17AB90023EDE7E2
:1033E00083685B7903F0C003402BC1D1C1E797F834
:1033F0004930002BC5D097F88470C6E7DBF8003061
:1034000093F88970002FE9D1A8680193394604F038
:10341000A7FD019B83F88500DBF8003093F8853029
:10342000002BCBD001930DF08DFB08280ED0DBF8DC
:103430000020019B82F88100C0E7A968384604F0AB
:1034400003FE0346BAE7DBF800709CE73B46B5E7AE
:10345000380B00202DE9F0416A4C6368D4F80080F5
:10346000002205461A8018460F4607F011F9032D71
:1034700031D0052D4BD0606808F193010DF056FC5A
:1034800098F89A1060680DF065FC236893F8862020
:1034900093F8417003F142065AB193F85020032A81
:1034A0002ED093F8810004F009FE00281CBF0646C8
:1034B0000127606831460DF032FC606839460DF036
:1034C0003CFC514BD3F80431002B40F09680052D85
:1034D0000BD0BDE8F0816068037823F00F0343F060
:1034E000030303700C234370C6E723683168DA6C6A
:1034F000C2F80A10B188D181DB6C5F72BDE8F0813F
:1035000093F84920002ACCD093F88400CBE7D4E983
:103510000006317821F02F0141EA471141F0050101
:10352000222331707370C36C1B6AC6F80F30C26CF3
:10353000936BF3741F0A1B0C37757375D369B2F85C
:10354000407041F64B518B42D16B3BD9DFF8BCC088
:10355000ACFB01E1890AACFB07C7BF0AF175C1F3F7
:103560000721B77531762949A1FB0313C3F38F23D4
:1035700073761B0AB376938CF3761B0A3377D38C5E
:1035800073771B0AB377D2F8CF30C6F81F3092F8A2
:10359000D33086F82330C36C96F8242093F8DA30C1
:1035A00022F01F0203F01F03134386F8243004F0B7
:1035B00023FB96F8243003F01F0343EA401386F8F8
:1035C000243058E7DFF848C0ACFB01E14909ACFB07
:1035D00007C77F09F175C1F30721B7753176A3F5E8
:1035E0007A7741F270718F42BDD80A49A1FB03136B
:1035F0009B0903F550639BB2BAE740F23761322072
:10360000FDF73CFF380B0020001000405917B7D1E0
:103610001F85EB51D34D621010B504F073FD0B4ABA
:103620000B4B1468187094F885301BB906F042FCF7
:10363000032010BD07F0C6F805F04CFF002384F806
:10364000853006F037FC032010BD00BF380B00208A
:103650001000002038B50D4D2C6894F8853063B902
:103660000023012184F87010A4F8B23084F8B4303B
:103670002046BDE8384003F0E7BB07F0A3F805F0AB
:1036800029FF002384F885302C68E9E7380B0020F7
:1036900038B50F4D04F036FD2C680E4A94F885308D
:1036A000107063B90023012184F87010A4F8B230BF
:1036B00084F8B4302046BDE8384003F0C5BB07F0BD
:1036C00081F805F007FF002384F885302C68E9E7CE
:1036D000380B00201000002038B5104D01F0F6FE28
:1036E00004F010FD2C680E4A94F88530107063B910
:1036F0000023012184F87010A4F8B23084F8B430AB
:103700002046BDE8384003F09FBB07F05BF805F0AA
:10371000E1FE002384F885302C68E9E7380B0020AF
:103720001000002038B504F0EDFC114D114B02469D
:1037300028681A7000218E300DF097F92C6894F8E3
:10374000853063B90023012184F87010A4F8B230E9
:1037500084F8B4302046BDE8384003F075BB07F06C
:1037600031F805F0B7FE002384F885302C68E9E7CE
:10377000380B00201000002038B5234C236893F844
:10378000B4205F2A9EBF5109204A555C5A6F88BFFA
:10379000002522B10120FFF7D7F980B32368D86F45
:1037A00006F0AEFF236893F85020022A1BD0032AAC
:1037B0000CD0062240F20110002183F8B15083F8AA
:1037C0007020A3F8A90083F8891038BD93F89220DF
:1037D000012AEED115F00C0F0AD12946002007F07E
:1037E0000BF82368E5E793F89220022AE1D1F1E78C
:1037F00093F85530012B14BF29460421EEE740F21F
:10380000B4413220FDF73AFE380B0020F0320200BE
:1038100070B5154D0521286803F03CF950B12B68AF
:10382000012093F8B11006F0E7FF2B680B2283F814
:10383000702070BD2E6896F8853063B90023012191
:1038400086F87010A6F8B23086F8B4303046BDE87D
:10385000704003F0F9BA044606F0B4FF05F03AFEF2
:1038600086F885402E68E9E7380B002070B5164DC4
:1038700000210320FFF7EEFD2868032103F00AF979
:1038800040B10121084606F0B7FF2B68092283F8F2
:10389000702070BD2E6896F8853063B90023012131
:1038A00086F87010A6F8B23086F8B4303046BDE81D
:1038B000704003F0C9BA044606F084FF05F00AFE22
:1038C00086F885402E68E9E7380B002070B5374D43
:1038D0002B6893F8B4205F2A9EBF5109344A565C86
:1038E0005A6F88BF00262AB10120FFF72DF9002862
:1038F00057D02B68D86F06F003FF2C6894F850302F
:10390000022B2CD0032B0FD094F89230022B11D025
:10391000012B13D0DBB30523002284F8B16084F8B7
:10392000703084F8892070BD94F89230012B1AD041
:10393000022BEFD10023A4F8A930ECE794F8B130C2
:10394000A3F10203B3FA83F35B094FF0000263F3C0
:10395000070263F30F22A4F8A9202C68DBE794F890
:103960009230022BD4D116F00C0F09D13146002031
:1039700006F042FF2C6894F89230022BC8D1D9E7A8
:1039800094F85530012B14BF31460421EFE701F0C4
:103990004DFF84F8A90001F047FA84F8AA002C68CA
:1039A000B9E740F2B4413220FDF768FD380B002042
:1039B000F032020070B5B8B9A9B11E4A136893F885
:1039C000701008292CD993F870100C292DD893F871
:1039D0007030926803F180435268093BBDE8704043
:1039E00052F82330184770BD124D2C6894F885307A
:1039F0006BB904F1B2020023012184F87010A4F81D
:103A0000B23093702046BDE8704003F01DBA06F056
:103A1000D9FE05F05FFD002384F885302C68E8E7C7
:103A200041F20D413220FDF729FD41F20E413220D5
:103A3000FDF724FD380B0020F0B55B4C83B001F09E
:103A40007BFA236893F85030032B6FD16568002D03
:103A500000F0A480206890F8803090F87020034433
:103A600093F8B56080F8B1601AB190F87030012B0E
:103A70004AD190F883204D4B13441F79384606F005
:103A800045F9236893F8802083F89970134493F8DC
:103A9000B5707B1E072B72D8DFE803F0045D71045C
:103AA0007171710401F0FCF9394605F0C5FF284633
:103AB00006F0EEFD3946012006F02EF9012E39D12F
:103AC000E81C266804F07AFA236886F8850093F8E3
:103AD000852032B1402505F0DFFC284606F066FE61
:103AE000236893F85020023A012A13D9002240F6A5
:103AF00008000321A3F88100C3F8892083F8A820D7
:103B000083F8701003B0F0BD002102F0C3FF20B3B2
:103B10002068AEE793F880201A4492F8B510012986
:103B2000E4D1002006F068FE2368DFE701F0BEF96B
:103B300005468CE7681D276804F040FA236887F87B
:103B4000850093F88520002ACBD016F00C0F14BF07
:103B500055255025BFE70D20A6E7256895F8853047
:103B600093B900230121284685F87010A5F8B230DA
:103B700085F8B43003B0BDE8F04003F065B94FF408
:103B8000FA613220FDF77AFC019006F01BFE05F089
:103B9000A1FC019885F885002568E2E740F2EE3146
:103BA0003220FDF76BFC00BF380B0020F032020022
:103BB00008B504F0A7FA044B187006F07BF9BDE8CD
:103BC0000840FFF739BF00BF1000002010B504F017
:103BD00099FA0D4A0D4B1468187094F885302BB97A
:103BE00006F068F9BDE81040FFF726BF06F0EAFDD1
:103BF00005F070FC002384F8853006F05BF9BDE821
:103C00001040FFF719BF00BF380B00201000002044
:103C100070B50446FEF7E2FB237A032B5DD0012B3F
:103C200067D04BD85D4D5E492A6892F8833092F890
:103C300048000133A1FB034606F4FF7404EB56046D
:103C40001B1B40FA03F6F607DCB215D40133A1FBC7
:103C5000034626F0010404EB56041B1B40FA03F64E
:103C6000F007DCB208D40133A1FB034121F00104C9
:103C700004EB51015B1ADCB282F8834092F95400E4
:103C800006F034F82C6894F88630002284F8A820D6
:103C900083B1D4E928126FF000439A4208BFB1F112
:103CA000FF3F07D00DF0B6FFD4E92823904271EB17
:103CB00003033DD2BDE87040FFF7BEBE023B012BBF
:103CC0000AD8364C236893F8A800A8B9FEF7A8FFD5
:103CD0002368052283F8702070BD304E3368586F1A
:103CE000002856D1FEF730FF054668B1237A012B34
:103CF00097D12A4D2A68C1E70120FEF791FF23687A
:103D0000062283F8702070BD01F0E0FB346894F85F
:103D10008530B3BB04F1B2020023012184F8701096
:103D2000A4F8B23093702046BDE8704003F08CB820
:103D3000012004F055F90028BCD02D6804F0F2F8F9
:103D400004460DF067FF63011B1B4FEAD46262F16A
:103D50000002520242EAD3525B021B1942F10006F2
:103D60004FEA861C9A014CEA936CD31A6CEB06025C
:103D70001B1942F100021B1842EB0101C5E9283171
:103D800098E706F01FFD05F0A5FB84F88550346820
:103D9000C0E740F626113220FDF770FB380B0020FB
:103DA000ABAAAAAA2DE9F041A94E336893F8532093
:103DB00086B05AB193F88B20054672B12C78012C4D
:103DC00012D0022C00F0B980002C46D006F072F818
:103DD0000324204606B0BDE8F08193F88C30002B18
:103DE000F4D02C78012CECD106F064F8326892F80B
:103DF000B130022B6B7800F0D38003F01803182B3E
:103E0000E6D192F85030032B00F0D080914B93F91B
:103E100000107F2900F01A817F221A70326892F810
:103E2000B13002910021039192F88210019192F831
:103E3000991000914232FF21284601F08DF80028A8
:103E4000C6D0A9690120FEF765FF0028C0D03368FD
:103E5000012283F892200224BBE706F02BF8336896
:103E600093F85030032BB3D06B7813F0100F14BFBE
:103E700008220122C3F3001732EA0303A8D1AB687A
:103E80008DF815408DF816408DF81740002B00F086
:103E9000A5800DF117030DF116010DF1150228464D
:103EA000FFF754FA31689DF8153091F84180002BE6
:103EB00040F0BF80AB68AA7C423140460CF017FE50
:103EC00088B9336893F85130023B012B80D89DF8B4
:103ED0001630002B3FF47CAF9DF81530002B7FF49B
:103EE00077AF4FF0FE08002F7BD05A4890F9004082
:103EF0007F2C00F0AB803268002792F8B130CDE91A
:103F0000024792F88240019492F8994000947F24ED
:103F1000047041464232284601F01EF800283FF462
:103F200057AFA9690120FEF7F5FE00283FF450AF16
:103F30003368022483F892704BE705F0BBFF3268C8
:103F400092F85030032B3FF443AF6B7803F0180323
:103F5000182B7FF43DAF3F4991F900007F2875D0C1
:103F6000002792F8B130CDE9020792F88200019063
:103F700092F8990000907F2008704232FF21284675
:103F800000F0EAFF00283FF423AFA9690120FEF703
:103F9000C1FE00283FF41CAF336883F8924018E755
:103FA00003F01903192B3FF42CAF11E769680023C4
:103FB000B1FA81F11A4649092846FEF78FF900281F
:103FC0003FF406AFAB699B7813F0E00334D133685C
:103FD00093F88730002B7FF419AFF9E64FF0FF0814
:103FE00081E71C4B93F900707F2F2FD032687F211F
:103FF000197092F87030032B05D092F87030062BB0
:104000000CBF0324012492F8B130CDE9027492F878
:104010008240019492F899400094414628464232E9
:1040200000F09AFF00283FF4D3AE01F01DFA0324FC
:10403000CFE648F0020856E7402B7FF4E7AE33683E
:1040400093F88830002B7FF4E1AEC1E6FEF7D8FA92
:10405000380B00201000002030B505468BB004F06E
:1040600051F82C78504B024604F00F04284669465C
:104070001A7001F0CDFC072C3FD04C4D0022214698
:104080006846FFF747F82B6893F8B130013B072BE0
:1040900074D8DFE803F01006730473737304072CFD
:1040A00026D005F007FF03242D6895F885308BB9DD
:1040B00020460BB030BD062C02D0F2D8022CF0D82E
:1040C00021466846FEF7F6FA2D6895F885300446D5
:1040D000002BEDD006F076FB05F0FCF9002320461E
:1040E00085F885300BB030BD9DF80030012BD8D15C
:1040F0006846FFF757FE0446D6E79DF80030022BCE
:1041000014D02A4D2A68012B92F8B1203BD0BBB9BC
:1041100012F00C0F14D09DF80120D10610D522F01A
:10412000030201938DF80120029309E09DF801300C
:104130001E4D002223F0030301928DF801300292FC
:10414000002207216846FEF7E5FF2B6893F8B1309F
:10415000013B072B12D801A252F823F0F1400000D6
:10416000E94000007D410000F14000007D41000079
:104170007D4100007D410000F140000041F2BC1192
:104180003220FDF77BF99DF8011000236FF3410108
:10419000022A8DF801100293D2D0CAB263F3000252
:1041A00001938DF80120CBE710000020380B002090
:1041B0002DE9F041B84D90B00C4606A901F028FC5D
:1041C0002B6893F8A90038B19DF819206FF300020D
:1041D0008DF819200022079293F8AA0038B19DF8B3
:1041E00019206FF341028DF81920002208929DF8E2
:1041F000180093F8923098420BD001F067F92C68C0
:10420000012694F88530002B50D1304610B0BDE81F
:10421000F081214606A801F01FFB78B99DF81930FE
:104220001B07EAD50B9B58781A7800F00F0142EA79
:104230000121000901F034FB0028DED022460721CD
:1042400006A8FEF767FF2C6894F88B3013B994F832
:104250008C301BB3089B00228DF815208DF816209A
:104260008DF8172083B30DF115020DF117030DF131
:10427000160106A8FFF76AF82C689DF8152094F837
:104280004170F2B99DF818609DF816809DF81730BE
:10429000012E21D0022E75D0002E55D001F016F936
:1042A00001262C6894F88530002BAED006F08AFAEF
:1042B00005F010F90023304684F8853010B0BDE8D1
:1042C000F08147F00207DDE79DF81860012E98465F
:1042D0001A464FF0FF07DDD19DF8190094F8A91098
:1042E00000F0090CBCF1090F04D0002989D010F0AE
:1042F000080F86D094F850C0BCF1030F00F09080F6
:1043000010F0020100F0CE80002A40F09980089B56
:104310009DF82A2094F8410004F142010CF0E7FBDB
:10432000002840F08D802C6894F85130023B012B1E
:104330003FF667AFB8F1000F3FF463AFFE2106A868
:10434000FEF7ACFB2C685CE794F85030032B3FF48D
:1043500057AF9DF819309B0748D4FF2794F88C304D
:1043600033B14E4B1B681BB10D9808B10F9998479C
:10437000394606A8FEF710FD2C6800283FF440AF30
:1043800002263EE794F8501003293FF439AF9DF818
:10439000190000F00906092E7FF432AF022900F05F
:1043A000A78010F0020100F00C81002A40F0DD80AF
:1043B000089B9DF82A2094F8410004F142010CF07A
:1043C00096FB002840F0D1802C6894F85130023BD5
:1043D000012B3FF615AFB8F1000F3FF411AFFE21EE
:1043E00006A8FEF75BFB01262C680AE7002AB5D178
:1043F00094F84100089B9DF82A2004F142010CF03A
:1044000076FB2C680028A9D194F85130023B012B8F
:104410003FF6F6AEB8F1000F3FF4F2AEFE279DE78F
:1044200006A8FDF75BFF00283FF43BAF28688E30FD
:104430000CF03DFB2C6800283FF4E3AE0C26E0E6D0
:10444000174B93F900407F2C00F0E5802A687F210C
:10445000197092F87030032B00F0B08092F8703031
:10446000062B0CBF4FF0030C4FF0010C92F8B1304B
:10447000CDE9024C92F88240019492F89940009460
:10448000394606A8423200F067FD00283FF409AF24
:1044900000F0EAFF2C68B4E6380B00202801002069
:1044A000100000205E4B93F900207F2A00F0B380BB
:1044B00094F870007F2703281F7005D094F870309F
:1044C000062B0CBF0321012194F8B130CDE9022164
:1044D00094F88220019294F89920009206A804F1A1
:1044E0004202FF2100F038FD00283FF4DAAECFE7AA
:1044F00010F0020100F08A8072B9002B3FF465AF22
:10450000089B9DF82A2094F8410004F142010CF028
:10451000EEFA00283FF458AF414B93F900407F2C4E
:1045200079D000217F2203201A70FEF793FF2A68BA
:10453000012692F8B130CDE9024692F8824001940A
:1045400092F899400094394606A8423200F004FDE2
:1045500000283FF4A6AE28688E300CF0A8FA2C682C
:1045600000283FF44EAE0B264BE62D4B93F900404E
:104570007F2C50D02A687F21197092F87030032B5D
:104580004BD092F87030062B0CBF0326012692F810
:10459000B130CDE9024692F88240019492F89940F8
:1045A0000094394606A8423200F0D6FC00283FF4B9
:1045B00026AE00F059FF01262C6822E64FF0000CD1
:1045C00054E7174B93F900207F2A24D094F8700009
:1045D0007F2603281E7005D094F87030062B0CBF80
:1045E0000321012194F8B130CDE9022194F8822011
:1045F000019294F89920009206A804F14202FF214A
:1046000000F0AAFC00283FF4FAADD2E7044B93F97E
:1046100000407F2C86D1FDF7F3FF0026B7E700BFEF
:104620001000002010B5044603F06CFD2378084A02
:1046300003F00F03072B107005D120460321BDE8BE
:104640001040FFF7B5BD00F041FF012010BD00BFD5
:104650001000002010B5044603F054FD2378084AEA
:1046600003F00F03072B107005D120460121BDE890
:104670001040FFF79DBD00F029FF012010BD00BFD5
:104680001000002090F83E00003818BF012070474D
:10469000014B024A9A607047380B00202C01002021
:1046A0000349044B0448054A08601A60704700BF7C
:1046B000280100209C000020F52F0000BD2E0000E6
:1046C000036823B1054A916813600B68184710B559
:1046D00040F654113220FCF7D1FE00BF380B002009
:1046E00038B50E4D00F0F2FE2C6894F8853063B9B1
:1046F0000023012184F87010A4F8B23084F8B4309B
:104700002046BDE8384002F09FBB06F05BF804F09D
:10471000E1FE002384F885302C68E9E7380B00209F
:1047200090F8403013F0FD0F14BF0120002003F07B
:10473000BFBA00BF38B590F84030044613F0FD0F03
:1047400000F1420114BF0120002084F8410003F071
:1047500097FA94F84030023BDBB2012B94BF01235F
:10476000002384F8863000D938BD03F0DBFB054612
:104770000DF050FA6B015B1B4FEAD56262F100024B
:10478000520242EAD3525B025B1942F1000C4FEA3B
:104790008C1E9A014EEA936ED31A6EEB0C025B19D3
:1047A00042F100021B1842EB0101C4E9283100204C
:1047B00003F016FC0028D7D140F6CB113220FCF7CD
:1047C0005DFE00BF90F85030032B0ED0013B012B53
:1047D00001D90020704790F8510000F0FD00A0F1D1
:1047E0000100B0FA80F04009704790F85200A0F143
:1047F0000100B0FA80F04009704700BF10B50446D0
:1048000011B190F885306BB994F85030032B01D07A
:1048100000F05CFE0020A4F8B20084F8B40084F834
:10482000700010BD05F0CEFF04F054FE002384F8A4
:104830008530E9E708B58E300CF042F9002008BD5C
:104840000249022236300CF0F0BB00BF8522000086
:1048500010B5012104460020FDF7A8FA002836D043
:10486000227812F001032AD1012112F0020F08D0A0
:1048700000EB030C0B46A17880F8501002218CF855
:10488000B510520706D50344E17880F8501008228D
:1048900083F8B520237980F84030637980F851306F
:1048A00013F0FD0F0CBF0123002380F84930A379DA
:1048B00080F84830E37980F85330002010BD6178EB
:1048C00080F85010012380F8B5300221CDE740F682
:1048D00041213220FCF7D2FD2DE9F041012182B0C7
:1048E00006460020FDF762FA012104460846FDF75E
:1048F0005DFA0546204601F09BFF02E094F8703017
:104900001BB194F87030012BF8D1002D47D0284608
:1049100001F08EFF02E095F870301BB195F8703011
:10492000012BF8D100F0ACFA00210F463F2240F2F3
:10493000071820460AF0B6FB04F1600084F85070B6
:1049400084F8837084F85460A4F848800CF0C0F8B0
:104950003F22394628460AF0A5FB85F8507085F8B5
:10496000837085F85460A5F8488005F160000CF06C
:10497000AFF8002384F8AB3040F2011140F202722C
:10498000C4F8AC306846CDE90033ADF80010ADF89E
:104990000520FFF75DFFC0B902B0BDE8F08100F06F
:1049A0006FFA3F22294620460AF07CFB40F20713AB
:1049B00084F8505084F8835084F85460A4F8483048
:1049C00004F160000CF084F8D3E740F66B0132206C
:1049D000FCF754FDF8B51D4E03460F46002001219B
:1049E0007360FDF7A5F938B34FF49C7200210446BB
:1049F0000AF058FB01210846FDF79AF9054688B1EF
:104A00004FF49C7200210AF04DFBB368CBB13846DD
:104A1000FFF762FF204601F031FF2846BDE8F8406D
:104A200001F02CBFB36863B13846FFF755FF20464D
:104A3000BDE8F84001F022BF40F672013220FCF7D9
:104A40001DFD40F67C013220FCF718FD380B0020DC
:104A500008B590F87030022B15D1023901290DD814
:104A60004AB90B4B1B680022A3F8B22083F8B4208C
:104A700083F8702008BD00F029FDF2E740F67F21A1
:104A80003220FCF7FBFC40F671213220FCF7F6FCEB
:104A9000380B002008B500231A461946603003F091
:104AA000B3F800280CBF0C20002008BD10B5012170
:104AB00004460020FDF77AF968B1034690F8AB2070
:104AC00002F0FF002AB9C3F8AC40FF2283F8AB2004
:104AD00010BD0C2010BD40F6BE213220FCF7CEFCEC
:104AE00008B501210020FDF761F918B1002380F815
:104AF000AB3008BD40F6CF213220FCF7BFFC00BF31
:104B000038B501210020FDF751F9F0B1044690F8C5
:104B1000AB30BBB1002380F8AB30D0F8AC00012142
:104B200050300CF0B4FDD4F8AC3093F8443003F0BE
:104B3000FF053BB9D4F8AC0004F05CF9C4F8AC5004
:104B4000284638BD0C25284638BD40F6D6213220EF
:104B5000FCF794FC08B501210020FDF727F928B1E6
:104B600090F8AB00003818BF012008BD40F6F921CD
:104B70003220FCF783FC00BF2DE9F04705468CB0DE
:104B80000C4600200121FDF711F9002800F03081CA
:104B90000646B83001F0AAFE28B93046FFF772FD8C
:104BA000002800F0FE8005F1250702A9384600F034
:104BB0002FFFE87CD5F80920D5F80D30D5F8111075
:104BC000D5F81560C4F80320C4F80730D5F81920CB
:104BD000D5F81D30C4F80B1010F01009D5F82110CD
:104BE000C4F80F6004F10308C4F81B10C4F81320C4
:104BF000C4F8173058D0430740F1E9800023E3722E
:104C00000423237002F0AAFF0746002800F09C80CE
:104C10002378042B40F0F58094F80D9019F0100FD4
:104C200000F0EB807D4ED4F80300D8F80410D8F8DB
:104C30000820D8F80C3094F80BA006F1080CACE86A
:104C40000F00D8F81000D8F81410D8F81820ACE8E5
:104C5000070004F11F01524606F124000AF0AAF9E8
:104C600019F0040148D0F37EFE2B45D12373338C19
:104C7000A4F81130737CE374337AE3700123237159
:104C8000737A6371D6F80A30C4F80630F389F06994
:104C900063811123C4F80D002370002F55D14FF408
:104CA0008273ADF8043063E095F82430242BA5D846
:104CB0009DF80830022BA1D0584EE522737904F1FB
:104CC0001F0138460CF000F97279E0720346134474
:104CD000384673710CF0F0F87379834290D0637B9F
:104CE000012262F3461363730423237002F036FF3C
:104CF0000028D4D04F468BE7494B327A9B8863819A
:104D00000AF10A0313FB02F3E2700233727A637052
:104D1000627104EB0A03D6F80A20707CC4F80620FE
:104D2000032284F80CA02270587319F008002DD0CB
:104D300004232371BAF11F0F67D83A49524604F190
:104D40000D000AF037F9A8E7344E3068A5F10801E4
:104D50000BF05FFAEFF3108272B633790133DBB2F6
:104D600033718AB100224FF401737271ADF80430CF
:104D70009DF804209DF80530002062F3070063F3DE
:104D80000F200CB0BDE8F08762B6EBE709F0030333
:104D9000032B29D029BB022B28D0002B39D122711B
:104DA000C8E71E4EA5F1080130680BF032FAEFF3A8
:104DB000108272B633790133DBB2337102B962B655
:104DC00000224FF400737271ADF80430D0E79DF803
:104DD00018600599324604F11F000AF0EBF8E672FC
:104DE0000EE701232371A5E72071A3E72371A1E753
:104DF00040F2C9113320FCF741FB56213320FCF768
:104E00003DFB55213320FCF739FBA6213320FCF76D
:104E100035FBA3213320FCF731FB00BF440B0020FE
:104E20004E0B0020680B002010B5094C606C28B1B7
:104E300090F82400FF3818BF012010BD20680BF047
:104E4000D8F960640028F3D14E213320FCF716FB1B
:104E5000440B0020253270B592B205460C461E4622
:104E60000BF09EF945B1054A0023156082F84840D1
:104E700082F849601471536470BD00BF440B002078
:104E800038B5064C00252068E564A4F850500BF0B6
:104E9000AAF994F848306564237138BD440B0020AA
:104EA000014B93F849007047440B002010B5174C94
:104EB000606C08B12D3010BD20680BF09AF9606469
:104EC000F0B10023C0F81930C17EC0F81130FF22C4
:104ED0004FF0010C7F24C0F81D30C0F82130C0F81D
:104EE00029306CF3461180F82B40C0F81530C0F81B
:104EF0002530C277827480F82420C1762D3010BD11
:104F000040F285113320FCF7B9FA00BF440B0020B2
:104F100010B5084C606C08B12D3010BD20680BF046
:104F200068F960640028F7D14FF4CB713320FCF7A7
:104F3000A5FA00BF440B002010B5064C616C21B1EE
:104F400020680BF066F9002363640023E364A4F88F
:104F5000503010BD440B00202DE9F04F85B089463C
:104F60009DF8446001929DF838109DF83CB09DF981
:104F7000402090F800A0B34F0546984696BB7C6C45
:104F8000002C00F0A9810020C4F81900C4F8110019
:104F9000C4F81D00C4F82100C4F82900C4F81500A5
:104FA000C4F82500E07EA276012262F34610627406
:104FB000FF22E277A27484F824207F2284F82B2039
:104FC00008F1FF3204F10803E076072A00F2C981F4
:104FD000DFE812F029012901C701AE01C701C701AD
:104FE000C701AE013B79012B00F09E81BAF1020F9F
:104FF0000AD0007CB7F85030034440F2726083421C
:1050000000F39281A7F850307C6C002C00F01F82D6
:10501000A2760122627408F1FF3204F10803072A24
:1050200000F29F81DFE812F0080008009D017E0178
:105030009D019D019D017E014246A27784F82C10BE
:105040006A69607F002A40F03481012E40F0F780C9
:105050002978002900F05081A1F1010CE27EBCFA10
:105060008CFC4FEA5C1C6CF30002E27692075CBF9A
:10507000A1F1020CBCFA8CFCE27E54BF4FEA5C1C2E
:105080004FF0010C6CF34102E27612F0020294F848
:105090001BC01CBFB1FA81F2520962F3C30C84F841
:1050A0001BC0D5F808C0BCF1000F00F0D980022E5B
:1050B00010D0002E00F0CA80012E0BD1002900F084
:1050C0006F81012900F09581022900F0C580BAF1B5
:1050D000000F03D1AA69002A40F0CA80E27E6FF374
:1050E0004612E27636B918F00C0F03D06A78D00673
:1050F00000F1CC802A6A1AB192F9002084F82B20A2
:105100006A68002A6FD0627F002E00F0C380012EF3
:1051100000F01081022E52D0BCF1000F40F0F3805D
:10512000F86C38B101930025057247490BF089FFEF
:10513000019BFD64E27E02F06002202A00F0CA803A
:10514000002222744049019318460BF07AFF019B1C
:105150007A6C002A00F068810832934240F069813D
:105160003B793868013BDBB200227A643B710BF07B
:1051700040F87864002800F06181D4F81120D4F858
:105180001530D4F81910D4F81D50C0F81D50C0F8CF
:105190001120C0F81530C0F81910D4F82120D4F827
:1051A0002530D4F82910C0F82910C0F82120C0F803
:1051B0002530012005B0BDE8F08F022A13D1BBF1E4
:1051C000080F04F1130200F0FA80584604F11201AE
:1051D000029302F0ADFE029B002800F03481A27C15
:1051E00042F00202A274AA68D2B1022E627F97D066
:1051F000002E40F08880BAF1000FDAD1032A00F0C7
:10520000D980A9F10202012A04F1250140F2A2800D
:10521000AA681068C4F8250092888A8084F82490CF
:10522000002EC6D07CE7404684F82C1060776A696F
:105230002AB1298841F2FF0C1CEA010F3ED12978DE
:105240000AE700BF440B0020794B000000297FF4DF
:1052500041AF032800F0BC80E27E42F00402E27617
:10526000012E7FF437AFBAF1000F7FF437AF31E78B
:105270009178507801F01F0250EA0222E27E0CBFC2
:105280000221012161F34612E2762BE76A68002AC7
:1052900078D0627FBAF1020F57D0BAF1010F8CD0EB
:1052A000BAF1000F51D1032A89D16A78D1069AD474
:1052B00085E7032E02D1E17E0907C0D45178C1F3FE
:1052C0000311E1775178127801F00F0142EA0122CF
:1052D0002284BAE6FB643BE73868CDE902120AF0A3
:1052E00088FFDDE902120446786400287FF44BAEA3
:1052F0004E213320FCF7C2F8EA69002A3FF4ACAE35
:1053000052886284A8E6012E7FF40AAFBAF1000F3A
:105310003ED1786C00287DD090F82420FF2A3FF4FD
:1053200070AFFDE6032288E6002005B0BDE8F08FEF
:10533000032079E7BAF1000F18D1786C002860D00B
:10534000827CFF2A3FF43BAF4DE7BCF1000F7FF4B6
:1053500052AF2EE701980268C4F8252082888A801F
:105360005CE740F281210620FCF788F8BAF1010FD2
:1053700033D0BAF1020F3FF422AFBCF1000F3FF47B
:10538000CFAEC0E7BCF1000F3FF413AF627F32E74E
:10539000BAF1010F29D0BAF1020F7FF4C1AE30E7A4
:1053A00094F82420FF2A3FF457AFBAF1000F7FF49E
:1053B00095AE8FE66A78D2063FF5FBAE21E7697CB1
:1053C000A17469680868C4F81300898891800AE7A5
:1053D0006A78D2063FF57EAE3EE7022A7FF4EFAE52
:1053E000BCF1000F3FF49CAE8DE7022A7FF409AFB9
:1053F00096E602287FF430AFBAF1000F7FF46EAE6C
:1054000068E6386802930AF0F4FE029B786400288C
:1054100096D16DE7386802930AF0EBFE029B786440
:1054200000287FF479AF63E74FF4D7713320FCF79E
:1054300025F840F2AF113320FCF720F840F2392173
:105440003320FCF71BF8DB213320FCF717F8386812
:10545000CDE902120AF0CDFEDDE9021204467864BD
:1054600000287FF4D5AD43E710B5164C606CD0B181
:10547000837F93B92279012A0ED022796364013A9D
:10548000D2B222712279C2B103740F4908300BF0F5
:10549000D8FD0023A4F8503010BD23796BB1002350
:1054A000A4F8503010BD20680AF0A3FE6064002804
:1054B000DED14E213320FBF7E1FF40F2E52133201E
:1054C000FBF7DCFF440B0020794B000038B5234C80
:1054D000606C002835D0837F13B3E06C08B3C37CC5
:1054E000022262F34613C374002505721C490BF0B7
:1054F000A8FD606CE564D0B1827F92B92379012B5D
:105500000ED023796264013BDBB223712379FBB1B6
:105510000274134908300BF094FD0023A4F85030B6
:1055200038BD2379A3B10023A4F8503038BD2068DA
:105530000AF05FFE60640028DED14E213320FBF7C5
:105540009DFF20680AF055FE60640028C3D1F4E78F
:1055500040F2E5213320FBF791FF00BF440B002010
:10556000794B00002DE9F04F614D91462A7983B0C7
:10557000012A98469DF834A09DF830309DF938B046
:1055800020D06C6C07460E46002C00F087804FF050
:10559000000C0122C4F811C0C4F815C0C4F819C029
:1055A000C4F81DC0C4F821C0C4F825C0C4F829C07F
:1055B0006274062E00F28880DFE806F00741558607
:1055C00086865A0003B0BDE8F08FE27E22F0130217
:1055D00042F01302E276082B04F1130239D0184688
:1055E00004F1120102F0A4FC00287CD0A37C686CBA
:1055F00043F00203A374E27E84F81AB00123A4F8F6
:105600001D3052074FF0FF03E37738D484F824307D
:105610007F2384F82B3084F82CA000285ED0A04291
:1056200057D12B79013B0022DBB26A642B710274E3
:105630003049083003B0BDE8F04F0BF002BDE27E08
:1056400022F0150242F01502082BE27604F1130253
:10565000C5D17B7CA3747B681968C4F813109B8840
:1056600093802046C7E7E27E42F01002E276B2E77E
:10567000E27E22F0120242F01202E276ABE7A8F1DB
:105680000203012B04F1250216D9BB681968C4F87E
:1056900025109B88938084F82480B9E728680193BB
:1056A0000AF0A7FD019B6864044600287FF46FAFF1
:1056B0004E213320FBF7E2FED9F80030C4F8253044
:1056C000B9F804309380E6E740F239313320FBF734
:1056D000D5FE40F2AF113320FBF7D0FE4FF4D77167
:1056E0003320FBF7CBFEDB213320FBF7C7FE00BFE7
:1056F000440B0020794B00002DE9F84F494E9DF9ED
:1057000028A099463379012B71D0746C80460F46DE
:105710001546002C6DD000224FF0010B082FC4F865
:105720001120C4F81520C4F81920C4F81D20C4F8AD
:105730002120C4F82520C4F8292084F811B004F1F0
:10574000130233D0384604F1120102F0F1FB0028B5
:1057500064D045F01A0505F01B02E57E84F81AA016
:10576000FF23E37784F8243025F01B05A37CA4F8FD
:105770001DB01543726C84F82C907F2143F0020316
:1057800084F82B10E576A374002A42D094423BD1D2
:105790003379013B0022DBB27264337122742249F7
:1057A00004F10800BDE8F84F0BF04BBC98F811303D
:1057B000A374D8F804100868C4F81300898891808D
:1057C000FF23E37784F824307F2384F82B30E37EB3
:1057D00084F81AA045F01A0505F01B0523F01B03F9
:1057E0001D43A4F81DB084F82C90E576D0E7BDE801
:1057F000F88F30680AF0FDFC0446706400288AD1F6
:105800004E213320FBF73AFE40F2AF113320FBF775
:1058100035FE4FF4D7713320FBF730FEDB21332008
:10582000FBF72CFE440B0020794B000010B5094C0F
:10583000606C20B1807CFF3818BF012010BD20684B
:105840000AF0D7FC60640028F4D14E213320FBF726
:1058500015FE00BF440B002070B5104E736C05465A
:105860000C467BB13CB92B8841F2FF021A420CBFB7
:105870000120002070BD032C0ABFD87E0020C0F399
:10588000C00070BD30680AF0B4FC034670640028A4
:10589000E8D14E213320FBF7F1FD00BF440B00207F
:1058A00070B50D4E736C04460D4653B1DA7FA242BB
:1058B00001D0002070BD188C401BB0FA80F0400968
:1058C00070BD30680AF095FC034670640028EDD185
:1058D0004E213320FBF7D2FD440B002070B50C465F
:1058E000054616460BF032FA607428460BF039FA7A
:1058F000A074062E13D8DFE806F00419041204126F
:1059000004000023EA1CC4E90123012161706B78C3
:10591000063BDBB223743BB10935E56070BD002363
:10592000C4E9013363702374E36070BD0023032175
:105930006A1823740935C4E901256170E36070BDFC
:1059400070B5C3780C4613F03F015BD005460BF0F1
:10595000FDF9607428460BF004FAA0742B7963708B
:10596000E878830923702B7913F0010641D14FF0B9
:10597000050C4FF00B0E624613F002011CBF05EB45
:105980000C017246A160590744BF0132D2B213F034
:105990000801666002D0961CA918F2B2616113F08A
:1059A000100102D0D61CA918F2B2A16113F0200197
:1059B00003D002F11206A918F2B213F04003E1611C
:1059C00002D0AB180132D2B200F03F00011D891A9B
:1059D00011F0FF01236214BFAB180B4663626B78B2
:1059E000013B1B1ADBB2237453B10A441544E56032
:1059F00070BD4FF00B0C6E1D4FF0110E6246BBE7F1
:105A0000E36070BD20462822BDE8704009F04ABB23
:105A100070B5067806F00F06072E25D00C46054611
:105A20000BF094F9607428460BF09BF9A074062ED5
:105A300013D8DFE806F0041D04120412040000234A
:105A4000EA1CC4E90123012161706B78063BDBB2DB
:105A500023743BB10935E56070BD0023C4E901330F
:105A600063702374E36070BDBDE87040FFF768BFEA
:105A7000002303216A1823740935C4E901256170E4
:105A8000E36070BD90F85030012B1FD008290FD073
:105A900004293AD0022931D011F00C0F40F2DC4336
:105AA0004FF0280208D14FF40260104418447047A8
:105AB00041F64C734FF4A872082903F1500310D13A
:105AC00040324FF4824010441844704708291FD0D8
:105AD000042917D0022940F6480008BF4FF485601A
:105AE0007047042905D12E324FF4825010441844D7
:105AF00070470229D7D14FF48260D6E718224FF4BD
:105B00004373F8E741F2BE10704740F6E823D1E74F
:105B100044F29020704700BF08B540F227312120A1
:105B2000FBF7ACFCF8B504460CF074F8D4F82C2163
:105B300005460E46002A56D04FF0000C94F832016C
:105B40006146634604EB83030CF1010CD3F8DC20BF
:105B50005FFA8CF3FE3283421144F3D9D4F8D87043
:105B6000B94214BF01270227384608F093FB3128B9
:105B700037D9431C5DD0D4E93A3219188A4298BF0C
:105B8000D01AD4F8B830D4F8BC205B1B62EB060600
:105B9000012B76F1000255DB00229842B2415ADA1D
:105BA00041F28836864228BF06460CF033F8C5F12C
:105BB00074050544B54214D83946304608F0BAFB9E
:105BC00078B9D4E93B20D4F8E830334430449342E8
:105BD000C4F8E830C4F8F00044D0BDE8F84008F05C
:105BE000FFBA0020F8BDD4F8D8C094F832010727D6
:105BF000ACFB07E71146134604EB83030132D3F8ED
:105C0000DC30FE331944D3B28342F5D98C451BD026
:105C1000D4F8D020D4F8C030D4F8D4109B1AD4F8DB
:105C2000C42062EB0102734572EB070311D3012715
:105C30009AE7D4E93A30C61A41F288339E4228BF27
:105C40001E46B2E70026B0E75EEA070301D003274D
:105C50008AE7022788E741F28830834228BF03465B
:105C60001E46A2E7D4E94023C4E93423B5E700BFC8
:105C70002DE9F04F8FB004461D46BDF860600492D8
:105C80008B460BF0C7FFD4F8DC80CDE9050194F812
:105C9000321108F1FE039C4651B1012204EB82004F
:105CA0000132D0F8DC00D2B2FE308A428444F5D909
:105CB000D4F8D870ADB3674500F02781049BA3BB2F
:105CC000D4E94067D4F8D800059A3318A2EB06054A
:105CD000B5FBF0F500FB05F547F10007ED18A5EB66
:105CE000020347F10007B3F5857F00F2CE81D4F8B7
:105CF000C8309B1BB3FBF0F300FB0366049B0393CC
:105D00009A4604EB0A03AE1B4519B6FBF0F693F86E
:105D1000B50047F10007082840F08D804FF4D269A4
:105D200035E1049A002A00F09A8000230393059B32
:105D300013F5FA65069B43F1000701F0DFF901F066
:105D40006DF9D4F82C3181469BB3D3F8F8020021C9
:105D500001F070F98145824600F02E82D4F82C01C2
:105D6000514600F53C7001F02FF9D4F82C110023B6
:105D7000C4F82031002900F0BF83BAF1000F00F011
:105D80001682079101F0C6F90799002800F0AF8349
:105D9000DAF80820DAF800309B18DAF80420C1F8A5
:105DA000F03242F10002BAF92430A1F81433C1F8FC
:105DB000F422494604F5807001F006F9B9F1000FAC
:105DC00019D0D9F80030D9F80800D9F80410C01853
:105DD000B9F92430A4F82431CDE90057D4F8D8908B
:105DE00041F100014A4601F043F9484500F2688359
:105DF000451947F1000701F087F9D4F8D830EB1ABC
:105E0000C4F8003167F10003C4F80431002E00F03B
:105E1000AE8042F2107329463A46E6FB0312C4E90B
:105E20002E124FF0000A012604EB0A0393F8B50086
:105E300008283FF473AF042800F07181022800F0B5
:105E4000A381431E072B00F23882DFE813F03A01EA
:105E50003602360299003602360236029900D4E93B
:105E60004002059E351AB5FBF7F507FB05F515EB66
:105E7000000906F20B15A5EB090542F10002AF423D
:105E800094BFEF1B2F46002900F0B682BB429DBF96
:105E9000FE3FA7EB080701230023012915D0D4F802
:105EA000E00000F1FE06BE4203D8FE3F01333F1A78
:105EB000DBB2022909D0D4F8E41001F1FE008742D8
:105EC00003D3FE3F01337F1ADBB204EB83019A4612
:105ED000D1F8DC8004EB0A0191F8B500082800F045
:105EE0008281042800F0E481022800F0A782411E8C
:105EF000072900F2E281DFE811F08202E001E0010F
:105F0000E501E001E001E001E50194F8283123B169
:105F1000B4F92431002B7FF4D1AE049B002B40F068
:105F2000DE82D4E92E126FF000439A4208BFB1F12D
:105F3000FF3F00F0518194F83131234493F8B500CC
:105F4000082800F07882042800F07C82022800F003
:105F50005982431E072B00F2B081DFE813F05E0286
:105F6000AE01AE01BD01AE01AE01AE01BD014FF00B
:105F7000FF326FF00043B246C4E92E23012653E7F7
:105F80004FF0A009022800F001812823994405F070
:105F90002FF8D4F8B820C44B511B00F52340D4F897
:105FA000BC2000F1A100A3FB003062EB070209F165
:105FB000C509012909EB901372F10000C0F2898034
:105FC0000020884570EB020200DB884604EB8A0A59
:105FD000039ADAF8DC00404528BF4046C4F8EC00DC
:105FE00012B9002E40F0A080D4F82C21049929B1D8
:105FF000D4E94089C4E93057C4E934890021C4E9AF
:106000003257C4F8E8308BF80B10ABF80810002AB0
:1060100062D094F832C10E460A4604EB8202013186
:10602000D2F8DC20FE321644CAB26245F5D9D4F863
:10603000D820964214BF012202228BF80A20039A2C
:10604000CBF80430002A3FD001228BF80020D4F88E
:10605000B8200599D4F8BC40521A069964EB0104A3
:10606000012A74F100015DDB90490025914275EB36
:10607000040400DA0A46D21ACBF8102083428CBFFF
:10608000002001200FB0BDE8F08F94F8B500049B0C
:106090008DF82030082800F06581042800F0F58193
:1060A000022800F0F581431E072B00F20681DFE88D
:1060B00013F0BB0104010401AD010401040104015A
:1060C000AD014FF4A8795DE7CBE904578BF80020C8
:1060D000D4E74FF0000879E7D4F8D8E094F832C15B
:1060E0004FF007081146AEFB0889164604EB820202
:1060F0000131D2F8DC20FE321644CAB26245F5D92D
:10610000B64547D0D4F8D020D4F8D410AA1A67EBFB
:106110000101424571EB09023AD301228DE740F2B9
:10612000BE2934E70022A6E7710089B2B4F9240140
:1061300007930AF08CFFB4F82411D4F82C21079BA4
:10614000091A09B2A4F8241162B1A2F81413D2F802
:10615000F0120918C2F8F012D2F8F41241EBE07113
:10616000C2F8F412D4F80011C6172D1846EB070731
:106170000818D4F80411C4F8000146EB0101D4F862
:10618000EC00C4F8041131E74FF048091823FDE68C
:10619000022252E7D4F8C020D4F8C410AA1A67EB40
:1061A0000101424571EB0902F2D2032245E70022C8
:1061B0000023C1E9BC23FCE5D4F82C11D4F8083144
:1061C000D1F8F822934238BF1346C4F8083101F5DC
:1061D0003C73C4F82031D0E5049E0123DDE9055766
:1061E000B246039320E64FF4D2660393079204F07D
:1061F000FFFE2D49079A00F52340A130A1FB003096
:1062000007F1C5010E4406EB90104045039B28D8CA
:1062100004EB8A03D3F8DC30A3EB0708B8F1000FD6
:10622000C0F2608115EB0905D4F80011D4F8D860EC
:1062300042F10007D4F8C020531AB3FBF6F306FB73
:1062400003F35B18C4F80031A5EB0303B3FBF6F6C8
:10625000D4F8043143F10003C4F80431002303935C
:10626000E2E594F8321199420ED90133DEB2D4F846
:10627000D8309D4280F0298104EB8603B246D3F8E2
:10628000DC8008F1FE05C9E7D4F8D8309D4263D31D
:10629000B5EB430F4FEA430180F01C8104EB8A0306
:1062A0000D46D3F8DC80B9E7D34D62100040420FB1
:1062B0004FF4A07606F5BF7697E740F2111105205E
:1062C000FBF7DCF804284FF0A006F3D0022800F01A
:1062D000B68028210E4488E704284FF0A00540F03E
:1062E0009E8005F5BF7504F083FE864A00F52343C2
:1062F000A133A2FB0323C535059A05EB931540F2A4
:106300000B13D3180C93069B099543F100030D93CF
:106310004FF0000A4FF4003308A88DF820A00A932C
:1063200007F0C2F8002800F0C6800C9AD4F8B83004
:106330000D999B1AD4F8BC2062EB01025B1B62F141
:106340000003002B4FF00103DDE905570393564688
:10635000BFF66AADD04667E51D4604EB8A03D3F865
:10636000DC805BE74FF4D26504F042FED4F8D8102D
:10637000D4F8C830D4F82C6100F5234205F1C500EB
:10638000D4F800515B1BB3FBF1F301FB03F35B1982
:106390005C4D0C9302F1A102A5FB025200EB92129C
:1063A000D4F80401099240F1000000220D90ADF8EC
:1063B00028208DF82B20002E47D094F8325110461B
:1063C000134604EB83030132D3F8DC30FE33184468
:1063D000D3B29D42F5D281420CBF022001208DF83C
:1063E0002A0008A80AF0E8FB4FF0000ADDE90C5784
:1063F0000646CDF80CA017E50B468A466AE54FF431
:10640000A87663E7482518231D446CE704284FF05D
:10641000A0050BD105F5BF75A6E74FF4A8750228B6
:10642000F1D028231D445EE74FF4A875022830D030
:1064300028231D4498E74FF4D26554E748261821D5
:106440000E44D2E64FF4A0754BE7072594F832C10D
:10645000A1FB055E3746324604EB82020136D2F8D4
:10646000DC20FE321744F2B26245F5D9B94215D0AC
:10647000D4F8D0209B1AD4F8D42060EB0202AB42AF
:1064800072EB0E0308D30120A9E74FF4A075C1E712
:10649000482518231D4467E70220A0E7D4F8C02050
:1064A0009A1AD4F8C43060EB0303AA4273EB0E03CC
:1064B000F2D2032093E740F2BB412120FAF7DEFF3E
:1064C00040F28F312120FAF7D9FF40F24D412120CF
:1064D000FAF7D4FF40F26A412120FAF7CFFF0123F7
:1064E000039324E440F273412120FAF7C7FF40F2FE
:1064F00027712120FAF7C2FF40F221712120FAF71B
:10650000BDFF00BFD34D6210F0B5013989B004461C
:10651000072900F21081DFE811F05C003600360038
:1065200073000E0178000B0009012046FEF788F980
:1065300094F82831002B00F0128194F83031002BB0
:106540003ED1D4F82C0120B1D4F82031002B00F03A
:10655000018104F5807000F013FD2046FEF79AFAE1
:10656000002384F83031C4F82C3184F8283194F8B1
:10657000B00006F065FF002800F0F680202384F8C4
:10658000B03009B0F0BD90F8B43090F8B32003F00B
:106590001F0352EA032340F0C4800022009201232B
:1065A00002A92046FFF764FB0028BED094F8B00093
:1065B00002A907F08FF8002800F0D88009B0F0BDDC
:1065C000D4F82031002BC4D004F5807000F070FDA9
:1065D000C3E7012180F82A1190F8293103F0FF0563
:1065E000002B43D0FEF70AF994F82A31002BE5D0AE
:1065F00003F010FD06F052FD002384F82A31DDE798
:1066000009B0BDE8F04004F065B990F8293143BB0A
:1066100090F8B43090F8B32003F01F0352EA03233C
:1066200079D090F8B13013F00C0F1AD090F8F83000
:10663000BBB9012180F8F81044F2365007F07AFE19
:1066400078B9D4F8E830D4F8F00044F23652104467
:106650001344C4F8E830C4F8F00007F0C1FD002886
:10666000ACD109B0BDE8F040FEF73AB890F8B00000
:1066700006F004FFD4F8003194F83261D4F8D870F1
:106680000294C4E930010595A0EB030CB6B1BCFB44
:10669000F7F207FB0233C01A2A462B4604EB8303AA
:1066A000D3F8DC3003F1FE01884203D3FE38013514
:1066B000C01AEDB20132D3B29E42EFD294F8B43098
:1066C00094F8B32084F8315103F01F0352EA0323F6
:1066D0008DF8185034D0D4F8F420039203238DF8A9
:1066E0001030002702A88DF81970FDF7E9FF94F823
:1066F0002A31002B3FF462AFD4F8E800B538C4F873
:10670000F00007F06DFD00287FF458AF4FF4DC7106
:106710002120FAF7B3FEFFF705FA00287FF44EAF09
:106720009FE701220321FEF793F936E740F2ED11CE
:106730002120FAF7A3FE40F2F1112120FAF79EFE84
:10674000BC4538BF0123BC458DF8103034BF00274D
:106750000127C7E700F53C7000F012FCF9E640F2B3
:1067600065112120FAF78AFEFFF7D6F940F25D7134
:106770002120FAF783FE00BF014B1870704700BF5D
:106780001100002070B590F828311BB903F0FF0507
:10679000284670BD0446FF2380F8293190F8B000E8
:1067A00007F0A4FA94F8B00007F0EEFE00212046AE
:1067B000FEF724F80546A0BB94F830313BB1D4F87D
:1067C000203153B104F5807000F072FC09E0D4F878
:1067D0002C0110B1D4F82031F3B104F5807000F031
:1067E000CFFB002684F8296194F830312046B3426B
:1067F00018BF0C25FEF74EF984F83061C4F82C61FF
:1068000084F8286194F8B00006F01AFE70B12023D5
:1068100084F8B030284670BD00F53C7000F0B0FB45
:10682000DBE74FF417712120FAF728FEFFF774F920
:1068300010B5044690F82831C3B90023A4F82431D8
:1068400094F8283103F0FF009BB942F2107340F234
:10685000712142F2126284F83201C4F8D830C4F8CF
:106860001031A4F81411C4F8DC2010BDFFF78AFF22
:10687000E3E74FF430712120FAF700FE1A4B0022B3
:1068800010B51A601A6841F6690320219A4280F80F
:10689000B0101FD8044690F82831C3B90023A4F8DB
:1068A000243194F8283103F0FF00C3B942F2107389
:1068B00040F2712142F2126284F83201C4F8D830F9
:1068C000C4F81031A4F81411C4F8DC2010BDFFF78F
:1068D00059FFE3E740F649012120FAF7CFFD4FF4D5
:1068E00030712120FAF7CAFD980B002090F8700053
:1068F000003818BF0120704730B585B090F82821C6
:10690000002A68D191F800C002F0FF03CDE90133FD
:1069100003931CF0010343D11CF0020F4FF001025E
:106920004FF002059E461C4646D004AB03EB8E0E8C
:106930000C694EF80C4C1CF0040FCC682B463FD170
:10694000013AD2B240F2712180F8322113F00102F3
:10695000C0F8D840C0F81041A0F8141103D0019934
:10696000FE39C0F8DC1099070BD504A901EB8201B0
:1069700000EB820451F80C1C0132FE39C4F8DC1023
:10698000D2B21B0709D504AB03EB820300EB8200F4
:1069900053F80C3CFE3BC0F8DC30002005B030BDA5
:1069A000D1E901421CF0020F01924FF003054FF0B4
:1069B00002024FF0010EB8D11CF0040F1A46BFD0EE
:1069C000D1E9054504A901EB820143F00803DBB2DC
:1069D00041F80C5CB6E74FF430712120FAF74EFD18
:1069E000F0B589B0002A3CD1044690F8283103F074
:1069F000FF06002B3DD10F4680F82961FF2380F868
:106A0000283190F8320184F83161A4F82461B44649
:106A10003546334604EB83030CF1010CD3F8DC203C
:106A20005FFA8CF3FE3283421544F3D91848C4F858
:106A30000851214606F0D8FC202884F8B00014D074
:106A400000970023012202A92046FFF711F9C8B1DF
:106A500094F8B00002A906F03DFE70B1304609B0CE
:106A6000F0BD1126304609B0F0BD0726304609B00A
:106A7000F0BD0C26304609B0F0BD40F209312120AE
:106A8000FAF7FCFC4FF442712120FAF7F7FC00BF43
:106A90000965000070B590F8293113B10026304621
:106AA00070BD04460D460BF0B5F894F8B130062DD4
:106AB00057D8DFE805F02704040736040400012650
:106AC000304670BD13F00C0F14BF4FF461754FF4D6
:106AD0005775D4F8C020D4F8E830801AC53B054477
